S01400006275696C642F7275736566692E7372656343
S3150800800010100020B583000851360708F5830008CC
S3150800801019840008F4830008078400083387782544
S31508008020A81A0B00AF830008AF830008813901083E
S31508008030AF830008AF830008AF830008054801082E
S31508008040AF830008AF83000801470108714701089C
S31508008050AF830008AF830008434607084946070868
S315080080604F460708554607085B460708293D010895
S31508008070593D01088D3D0108C13D0108F53D01083E
S31508008080253E0108593E0108F93B0108493C01080B
S31508008090653C0108813C01089D3C010861460708CA
S315080080A0ADD70608053B0108BFD70608CBD7060893
S315080080B0213B01083D3B0108593B010815EE030821
S315080080C0AF83000859400108B5410108AF8300088D
S315080080D0AF830008AF830008FD390108193A010883
S315080080E085460708B1470108AF830008C3D70608C5
S315080080F0DD3B0108C7D70608CFD706088D3E01081D
S31508008100AF830008AF830008753B0108AF830008FA
S31508008110AF830008AF830008913B0108AF830008CE
S31508008120C13E0108F13E0108253F0108593F0108F3
S315080081308D3F0108AF830008AF830008B93C0108EA
S31508008140D53C0108F13C01080D3D010881420108B2
S31508008150BD3F0108F13F010825400108E93A010839
S31508008160AF830008AF830008AF830008AF83000819
S31508008170AF830008AF830008AF830008AF83000809
S31508008180AF830008AF830008AF830008AF830008F9
S31508008190AF830008AF830008AF830008AF830008E9
S315080081A0AF830008AF830008AF830008AF830008D9
S315080081B0AF830008AF830008AF830008AF830008C9
S315080081C0AF830008AF830008AF830008AF830008B9
S315080081D0AF830008AF830008AF830008AF830008A9
S315080081E0E1CB0008856B06080000000000000000CF
S315080081F001F0FF01102A2BDB10F0070F08D010F84A
S31508008200013B013A8B422DD010F0070F42B3F6D14D
S31508008210F0B441EA012141EA014122F007047FF066
S3150800822000070023F0E80256083C85EA010586EABD
S31508008230010685FA47F5A3FA87F586FA47F6A5FAF9
S3150800824087F68EB9EED1F0BC01F0FF0102F0070205
S3150800825032B110F8013B013A83EA010313B1F8D1B0
S315080082600020704701387047002D06BF3546033891
S31508008270073815F0010F07D1013015F4807F02BFCA
S31508008280013015F4C03F0130F0BC0138704700BF1B
S3150800829072B6374880F30888364880F30988364826
S315080082A03649086040F20000CCF200004EF6347100
S315080082B0CEF200010860BFF34F8FBFF36F8F40F215
S315080082C00000C0F2F0004EF68851CEF200010860B8
S315080082D0BFF34F8FBFF36F8F4FF00000E1EE100A28
S315080082E04EF63C71CEF200010860062080F3148831
S315080082F0BFF36F8F64F080FD1CF04AFC4FF05530D9
S315080083001F491B4A91423CBF41F8040BFAE71D4935
S31508008310184A91423CBF41F8040BFAE71A491B4A2E
S315080083201B4B9A423EBF51F8040B42F8040BF8E780
S3150800833000201849184A91423CBF41F8040BFAE755
S3150800834008F056FF37F0E8FC144C154DAC4203DA3A
S3150800835054F8041B8847F9E758F0A2FD114C124D52
S31508008360AC4203DA54F8041B8847F9E764F045BDC4
S3150800837010100020101600200080000808ED00E00C
S31508008380100000201010002058960B081016002028
S31508008390601A0020601A0020D0A20120E08100089F
S315080083A0E4810008E4810008E881000870E700F02D
S315080083B000F8FEE70A480B49026800608A4201D0C5
S315080083C0FFF766FF08484FF48041016007484FF001
S315080083D0010101600648D0F800D040680047000057
S315080083E0F0FF0120EFBEADDE443802400038014000
S315080083F00000FF1F1EF0040F0CBFEFF30880EFF319
S3150800840009801CF003BD1EF0040F0CBFEFF30880B3
S31508008410EFF309801CF042BD1EF0040F0CBFEFF30A
S315080084200880EFF309801CF085BD00BF81F000418C
S3150800843002E000BF83F0004330B54FEA41044FEA3B
S31508008440430594EA050F08BF90EA020F1FBF54EAD6
S31508008450000C55EA020C7FEA645C7FEA655C00F072
S31508008460E2804FEA5454D4EB5555B8BF6D420CDD43
S315080084702C4480EA020281EA030382EA000083EAC6
S31508008480010180EA020281EA0303362D88BF30BD66
S3150800849011F0004F4FEA01314FF4801C4CEA1131BC
S315080084A002D0404261EB410113F0004F4FEA03331B
S315080084B04CEA133302D0524263EB430394EA050FA6
S315080084C000F0A780A4F10104D5F1200E0DDB02FA15
S315080084D00EFC22FA05F2801841F1000103FA0EF2A9
S315080084E0801843FA05F359410EE0A5F120050EF16F
S315080084F0200E012A03FA0EFC28BF4CF0020C43FAA0
S3150800850005F3C01851EBE37101F0004507D54FF0AC
S31508008510000EDCF1000C7EEB00006EEB0101B1F5FC
S31508008520801F1BD3B1F5001F0CD349085FEA300042
S315080085304FEA3C0C04F101044FEA445212F5800F4D
S3150800854080F09A80BCF1004F08BF5FEA500C50F1EA
S31508008550000041EB045141EA050130BD5FEA4C0CCD
S31508008560404141EB0101013C28BFB1F5801FE9D22A
S3150800857091F0000F04BF01460020B1FA81F308BF4D
S315080085802033A3F10B03B3F120020CDA0C3208DD19
S3150800859002F1140CC2F10C0201FA0CF021FA02F1F4
S315080085A00CE002F11402D8BFC2F1200C01FA02F164
S315080085B020FA0CFCDCBF41EA0C019040E41AA2BF89
S315080085C001EB0451294330BD6FEA04041F3C1CDA51
S315080085D00C340EDC04F11404C4F1200220FA04F071
S315080085E001FA02F340EA030021FA04F345EA03011B
S315080085F030BDC4F10C04C4F1200220FA02F001FADD
S3150800860004F340EA0300294630BD21FA04F029465E
S3150800861030BD94F0000F83F4801306BF81F48011F7
S315080086200134013D4EE77FEA645C18BF7FEA655C6A
S3150800863029D094EA050F08BF90EA020F05D054EA3C
S31508008640000C04BF1946104630BD91EA030F1EBF41
S315080086500021002030BD5FEA545C05D14000494145
S3150800866028BF41F0004130BD14F580043CBF01F538
S31508008670801130BD01F0004545F0FE4141F470011E
S315080086804FF0000030BD7FEA645C1ABF19461046F9
S315080086907FEA655C1CBF0B46024650EA013406BFFA
S315080086A052EA033591EA030F41F4002130BD00BFB9
S315080086B090F0000F04BF0021704730B54FF4806476
S315080086C004F132044FF000054FF0000150E700BFF7
S315080086D090F0000F04BF0021704730B54FF4806456
S315080086E004F1320410F0004548BF40424FF0000143
S315080086F03EE700BF42004FEAE2014FEA31014FEA86
S3150800870002701FBF12F07F4393F07F4F81F06051D4
S31508008710704732F07F4208BF704793F07F4F04BF1F
S3150800872041F40021704730B54FF4607401F00045FC
S3150800873021F000411CE700BF50EA010208BF70475C
S3150800874030B54FF000050AE050EA010208BF70474D
S3150800875030B511F0004502D5404261EB41014FF4B6
S31508008760806404F132045FEA915C3FF4D8AE4FF0BE
S3150800877003025FEADC0C18BF03325FEADC0C18BFA1
S31508008780033202EBDC02C2F1200300FA03FC20FAF2
S3150800879002F001FA03FE40EA0E0021FA02F114443F
S315080087A0BDE600BF70B54FF0FF0C4CF4E06C1CEA58
S315080087B011541DBF1CEA135594EA0C0F95EA0C0FC9
S315080087C000F0DEF82C4481EA030621EA4C5123EA3C
S315080087D04C5350EA013518BF52EA033541F480116B
S315080087E043F4801338D0A0FB02CE4FF00005E1FB1E
S315080087F002E506F00042E0FB03E54FF00006E1FB68
S3150800880003569CF0000F18BF4EF0010EA4F1FF04AA
S31508008810B6F5007F64F5407404D25FEA4E0E6D41EA
S3150800882046EB060642EAC62141EA55514FEAC520FB
S3150800883040EA5E504FEACE2EB4F1FD0C88BFBCF577
S31508008840E06F1ED8BEF1004F08BF5FEA500E50F128
S31508008850000041EB045170BD06F0004646EA0101EE
S3150800886040EA020081EA0301B4EB5C04C2BFD4EB20
S315080088700C0541EA045170BD41F480114FF0000E19
S31508008880013C00F3AB8014F1360FDEBF002001F087
S31508008890004170BDC4F10004203C35DA0C341BDC01
S315080088A004F11404C4F1200500FA05F320FA04F0D3
S315080088B001FA05F240EA020001F0004221F0004107
S315080088C010EBD37021FA04F642EB06015EEA430E7A
S315080088D008BF20EAD37070BDC4F10C04C4F12005AA
S315080088E000FA04F320FA05F001FA04F240EA02005D
S315080088F001F0004110EBD37041F100015EEA430E2E
S3150800890008BF20EAD37070BDC4F1200500FA05F24D
S315080089104EEA020E20FA04F301FA05F243EA0203CC
S3150800892021FA04F001F0004121FA04F220EA0200DB
S3150800893000EBD3705EEA430E08BF20EAD37070BD21
S3150800894094F0000F0FD101F00046400041EB010101
S3150800895011F4801F08BF013CF7D041EA060195F0E3
S31508008960000F18BF704703F00046520043EB03039D
S3150800897013F4801F08BF013DF7D043EA060370478A
S3150800898094EA0C0F0CEA135518BF95EA0C0F0CD095
S3150800899050EA410618BF52EA4306D1D181EA0301DB
S315080089A001F000414FF0000070BD50EA410606BFD5
S315080089B01046194652EA430619D094EA0C0F02D11A
S315080089C050EA013613D195EA0C0F05D152EA03365F
S315080089D01CBF104619460AD181EA030101F000417D
S315080089E041F0FE4141F470014FF0000070BD41F0C6
S315080089F0FE4141F4780170BD70B54FF0FF0C4CF4A0
S31508008A00E06C1CEA11541DBF1CEA135594EA0C0FBE
S31508008A1095EA0C0F00F0A7F8A4EB050481EA030E0B
S31508008A2052EA03354FEA013100F088804FEA0333F2
S31508008A304FF0805545EA131343EA12634FEA0222C0
S31508008A4045EA111545EA10654FEA00260EF0004181
S31508008A509D4208BF964244F1FD0404F5407402D2D3
S31508008A605B084FEA3202B61A65EB03055B084FEA64
S31508008A7032024FF480104FF4002CB6EB020E75EB61
S31508008A80030E22BFB61A754640EA0C005B084FEA89
S31508008A903202B6EB020E75EB030E22BFB61A754606
S31508008AA040EA5C005B084FEA3202B6EB020E75EB51
S31508008AB0030E22BFB61A754640EA9C005B084FEAC9
S31508008AC03202B6EB020E75EB030E22BFB61A7546D6
S31508008AD040EADC0055EA060E18D04FEA051545EAC5
S31508008AE016754FEA06164FEAC30343EA52734FEA6E
S31508008AF0C2025FEA1C1CC0D111F4801F0BD141EAE7
S31508008B0000014FF000004FF0004CB6E711F4801F4B
S31508008B1004BF01430020B4F1FD0C88BFBCF5E06F2B
S31508008B203FF6AFAEB5EB030C04BFB6EB020C5FEA3B
S31508008B30500C50F1000041EB045170BD0EF0004E90
S31508008B404EEA113114EB5C04C2BFD4EB0C0541EAC2
S31508008B50045170BD41F480114FF0000E013C90E6BF
S31508008B6045EA060E8DE60CEA135594EA0C0F08BF83
S31508008B7095EA0C0F3FF43BAF94EA0C0F0AD150EA82
S31508008B8001347FF434AF95EA0C0F7FF425AF104615
S31508008B9019462CE795EA0C0F06D152EA03353FF43D
S31508008BA0FDAE1046194622E750EA410618BF52EABA
S31508008BB043067FF4C5AE50EA41047FF40DAF52EA8E
S31508008BC043057FF4EBAE12E74FF0FF3C06E000BF2B
S31508008BD04FF0010C02E000BF4FF0010C4DF804CD38
S31508008BE04FEA410C7FEA6C5C4FEA430C18BF7FEAF8
S31508008BF06C5C1BD001B050EA410C0CBF52EA430C26
S31508008C0091EA030F02BF90EA020F0020704710F1A5
S31508008C10000F91EA030F58BF994208BF90422CBF34
S31508008C20D8176FEAE37040F0010070474FEA410C2D
S31508008C307FEA6C5C02D150EA013C07D14FEA430C4B
S31508008C407FEA6C5CD6D152EA033CD3D05DF8040BBC
S31508008C50704700BF8446104662468C4619466346EE
S31508008C6000E000BF01B5FFF7B7FF002848BF10F1C5
S31508008C70000F01BD4DF808EDFFF7F4FF0CBF01200A
S31508008C8000205DF808FB00BF4DF808EDFFF7EAFF86
S31508008C9034BF012000205DF808FB00BF4DF808ED41
S31508008CA0FFF7E0FF94BF012000205DF808FB00BF36
S31508008CB04DF808EDFFF7CEFF94BF012000205DF8C0
S31508008CC008FB00BF4DF808EDFFF7C4FF34BF0120CD
S31508008CD000205DF808FB00BF4FEA410C7FEA6C5C98
S31508008CE002D150EA013C0AD14FEA430C7FEA6C5C98
S31508008CF002D152EA033C02D14FF0000070474FF010
S31508008D00010070474FEA410212F5001215D211D53B
S31508008D106FF47873B3EB625212D94FEAC12343F06A
S31508008D20004343EA505311F0004F23FA02F018BFEC
S31508008D30404270474FF00000704750EA013005D1B5
S31508008D4011F0004008BF6FF0004070474FF0000078
S31508008D50704700BF4FEA4102B2F1E04324BFB3F5C2
S31508008D60001CDCF1FE5C0DD901F0004C4FEAC00294
S31508008D704CEA5070B2F1004F40EB830008BF20F078
S31508008D800100704711F0804F21D113F13872BCBF32
S31508008D9001F00040704741F480114FEA5252C2F187
S31508008DA01802C2F1200C10FA0CF320FA02F018BFD0
S31508008DB040F001004FEAC1234FEAD32303FA0CFC23
S31508008DC040EA0C0023FA02F34FEA4303CCE77FEAB2
S31508008DD0625307D150EA01331EBF4FF0FE4040F4FC
S31508008DE04000704701F0004040F0FE4040F40000AB
S31508008DF0704700BF80F0004002E000BF81F00041EC
S31508008E0042001FBF5FEA410392EA030F7FEA226C22
S31508008E107FEA236C6AD04FEA1262D2EB1363C1BFB2
S31508008E20D218414048404140B8BF5B42192B88BF21
S31508008E30704710F0004F40F4000020F07F4018BF44
S31508008E40404211F0004F41F4000121F07F4118BF64
S31508008E50494292EA030F3FD0A2F1010241FA03FC0C
S31508008E6010EB0C00C3F1200301FA03F100F00043F4
S31508008E7002D5494260EB4000B0F5000F13D3B0F1BC
S31508008E80807F06D340084FEA310102F10102FE2A2B
S31508008E9051D2B1F1004F40EBC25008BF20F001009B
S31508008EA040EA03007047490040EB0000013A28BF3A
S31508008EB0B0F5000FEDD2B0FA80FCACF1080CB2EBBD
S31508008EC00C0200FA0CF0AABF00EBC250524218433B
S31508008ED0BCBFD0401843704792F0000F81F40001E0
S31508008EE006BF80F400000132013BB5E74FEA4103B3
S31508008EF07FEA226C18BF7FEA236C21D092EA030F1F
S31508008F0004D092F0000F08BF0846704790EA010F98
S31508008F101CBF0020704712F07F4F04D1400028BFC5
S31508008F2040F00040704712F100723CBF00F50000A7
S31508008F30704700F0004343F0FE4040F400007047DD
S31508008F407FEA226216BF08467FEA23630146420289
S31508008F5006BF5FEA412390EA010F40F4800070479C
S31508008F604FF0000304E000BF10F0004348BF404242
S31508008F705FEA000C08BF704743F0964301464FF07E
S31508008F8000001CE050EA010208BF70474FF00003DA
S31508008F900AE000BF50EA010208BF704711F000431B
S31508008FA002D5404261EB41015FEA010C02BF8446EB
S31508008FB00146002043F0B64308BFA3F18053A3F54A
S31508008FC00003BCFA8CF2083AA3EBC25310DB01FA91
S31508008FD002FC634400FA02FCC2F12002BCF1004F15
S31508008FE020FA02F243EB020008BF20F001007047A6
S31508008FF002F1200201FA02FCC2F1200250EA4C00FA
S3150800900021FA02F243EB020008BF20EADC7070473F
S315080090107BB972B90029BEBF00204FF0004106E0B7
S3150800902008BF00281CBF6FF000414FF0FF3000F06A
S3150800903057B8ADF1080C6DE904CE002909DB002B01
S315080090401ADB60F0C7FEDDF804E0DDE9022304B0B0
S315080090507047404261EB4101002B1BDB60F0BAFE12
S31508009060DDF804E0DDE9022304B0404261EB41018A
S31508009070524263EB43037047524263EB430360F08B
S31508009080A9FEDDF804E0DDE9022304B0404261EB05
S3150800909041017047524263EB430360F09BFEDDF8E3
S315080090A004E0DDE9022304B0524263EB4303704750
S315080090B053B94AB9002908BF00281CBF4FF0FF3131
S315080090C04FF0FF3000F00CB8ADF1080C6DE904CE96
S315080090D060F080FEDDF804E0DDE9022304B07047A5
S315080090E0704700BF4A0011D212F5001211D20DD5F1
S315080090F06FF47873B3EB62520ED44FEAC12343F090
S31508009100004343EA505323FA02F070474FF0000039
S31508009110704750EA013002D14FF0FF3070474FF0E8
S3150800912000007047EC46A0E8F05F80EC108B4FF02B
S3150800913000007047B0E8F05FE54690EC108B080039
S3150800914008BF0120704700BF00F1340191E83800DC
S315080091509C46A6464CF8045D90E8FF0FE54600BD20
S3150800916090EC210B704700BF80EC210B704700BFC5
S3150800917090EC200B704700BF80EC200B704700BFB7
S31508009180D0EC200B704700BFC0EC200B704700BF27
S31508009190F0EC0201F0EC0211F0EC0221F0EC0231E5
S315080091A0F0EC0241F0EC0251F0EC0261F0EC0271D5
S315080091B0F0EC0281F0EC0291F0EC02A1F0EC02B1C5
S315080091C0F0EC02C1F0EC02D1F0EC02E1F0EC02F1B5
S315080091D0704700BFE0EC0201E0EC0211E0EC02216E
S315080091E0E0EC0231E0EC0241E0EC0251E0EC026115
S315080091F0E0EC0271E0EC0281E0EC0291E0EC02A105
S31508009200E0EC02B1E0EC02C1E0EC02D1E0EC02E1F4
S31508009210E0EC02F1704700BFB0FC0181B0FC01919F
S31508009220B0FC01A1B0FC01B1704700BFA0FC0181F0
S31508009230A0FC0191A0FC01A1A0FC01B1704700BFF0
S31508009240EC4600B52DE900502DE9FF1F4FF000034D
S315080092502DE90C0001A962F033FEDDF840E012B0FA
S31508009260704700BFEC4600B52DE900502DE9FF1FF9
S315080092704FF000032DE90C0001A962F05FFEDDF84E
S3150800928040E012B0704700BFEC4600B52DE900502B
S315080092902DE9FF1F4FF000032DE90C0001A962F02C
S315080092A06FFEDDF840E012B0704700BFEC4600B52F
S315080092B02DE900502DE9FF1F4FF000032DE90C00A2
S315080092C001AB62F033FEDDF840E012B0704700BF34
S315080092D0EC4600B52DE900502DE9FF1F4FF00003BD
S315080092E02DE90C0001AA62F0A7FEDDF840E012B0F5
S315080092F0704700BF2DE9F04F2DED108AC1F80CD04C
S31508009300C3689D46BDEC108ABDE8F08F08F006FBE1
S31508009310002383F311882846A047002009F042F964
S31508009320FEE708F0E9FA08F0F7FF08F0F7FA00DFB9
S31508009330FEE710F8012B11F8013B012A28BF9A42D3
S31508009340F7D0D01A7047034613F8012B002AFBD131
S31508009350181A0138704700002DE9F0470FF2B809CE
S31508009360D9E9008955EC104B2F4F4FF0000A00261B
S315080093702D4B002220462946FFF79AFC80B926A7DE
S31508009380D7E90067DFF8A0904FF00008274B0022C6
S3150800939020462946FFF778FC00BB5046BDE8F08713
S315080093A01DA3D3E9002320462946FFF781FC50B1C7
S315080093B02046294642464B46FFF71EFB0AF1050A98
S315080093C004460D46D4E72046294632463B46FFF773
S315080093D013FB0AF1010A04460D46C9E710A3D3E9AF
S315080093E0002320462946FFF74FFC50B12046294660
S315080093F032463B46FFF7D6F9AAF1050A04460D465A
S31508009400C4E72046294642464B46FFF7CBF90AF100
S31508009410FF3A04460D46B9E700000000006AF84026
S3150800942000000080B5F8E43E000024400000F03F4C
S315080094302DE9D0430FF26009D9E900891849194F77
S31508009440044600260020002C0ADC0FF24C09D9E954
S315080094500089144F00268CB941EC100BBDE8D08367
S31508009460042C05DD42464B46FFF79CF9053CEAE726
S3150800947032463B46FFF796F9013CE4E7231D05DA39
S3150800948042464B46FFF7B8FA0534E4E732463B4610
S31508009490FFF7B2FA0134DEE700000000006AF84080
S315080094A00000F03F000024402DE9F04F2DED028B1F
S315080094B003689BB0DB6898470446002800F0CE8610
S315080094C00368DB689847002800F0C8869FEDAA8BDA
S315080094D0AB4DAC4BD86836F0C1FA7F2808DCAA4AEF
S315080094E0AA4941F6F42045F061FD4FF000086EE305
S315080094F0236820461B699847804618B90A2009F050
S3150800950073F8F2E7EB690133EB61236801225E68C1
S315080095100DF11B014FF47A732046B047012800F07D
S31508009520AF81DFF880924C4540F00981DFF8D4A27C
S315080095309AF80030002B00F00281954E95483AF0D3
S31508009540D3FA3378033B012B08D993483AF0CCFA7F
S3150800955092483AF0C9FA92483AF0C6FAD9F8003071
S3150800956090485F68012240F6B83307A9B84707460E
S31508009570002840F0C180DFF89082D9F80030894889
S315080095805B6998470A2009F02FF858F8371086487B
S3150800959005913AF0A9FAD9F800300599DB698148AE
S315080095A098470A2009F020F87E48804935F048F89F
S315080095B07C485FFA87FB35F015F9002800F0B5807E
S315080095C03378032B40F09C807648794935F038F893
S315080095D0744835F007F9002840F0A18075483AF03C
S315080095E083FA0A2009F000F8734B83F800B0337841
S315080095F0033B012B53D871496A4835F021F84022BC
S315080096000AA9684834F07EFE6D49664835F018F8B0
S31508009610644840220AA934F075FE3378032B08D132
S315080096206849604835F00CF85E4840220AA934F0CB
S3150800963069FE65495B4835F003F840220AA959488E
S3150800964034F060FE6149574834F0FAFF5548402225
S315080096500AA934F057FE3378032B08D15C495148E0
S3150800966034F0EEFF4F4840220AA934F04BFE594920
S315080096704C4834F0E5FF4B4835F0B4F856494948AC
S3150800968034F0DEFF474835F0ADF83378032B06D1C2
S315080096904448524934F0D4FF424835F0A3F8D9F883
S315080096A0003040485B6998470A2008F09DFF424B06
S315080096B03C481A78D9F8003058F83210DB699847D0
S315080096C03378002B3FD1464B464A40210AA864F01E
S315080096D080F834480AA934F0B3FF324835F082F8E6
S315080096E0002842D13378032B30D03378002B00F092
S315080096F08D803D4B3D4A8BE03D483AF0F5F91BE03D
S31508009700042B0CD12E49274834F09AFF25481022FD
S315080097100AA934F0F7FD092801D136485FE7013771
S31508009720072F7FF42AAF4FF0FF0B234BBBF1FF0F38
S3150800973083F800B07FF45BAF00238AF8003000237B
S3150800974084F83035D1E6264B2B4ABEE7244B2B4A04
S3150800975040210AA864F03DF812480AA934F070FFBF
S31508009760104835F03FF80028BFD025480AA93AF036
S31508009770BBF9E1E7AFF30080846201FB000000005B
S3150800978010D20020001B0020E4E00A086DBE0A087B
S315080097900F840120F2E00A0820E10A0889E10A0894
S315080097A0DDE10A0884DA0020A7E20A0832E30A089B
S315080097B0BEE20A08C8E20A080E84012002E30A0883
S315080097C0E0E20A080FE30A0819E30A0822E30A088E
S315080097D02DE30A0837E30A0844E30A0850E30A08AF
S315080097E0F98301205BE30A08F483012091E30A0860
S315080097F056E20A08EAE20A0868E30A0874E30A086D
S315080098001AE40A0810840120A4F20708844B854A42
S3150800981040210AA863F0DDFF83480AA934F010FF47
S31508009820814834F0DFFF00289FD1804B32781B68CF
S3150800983002BB58F833307E4A40210AA863F0C9FFB4
S3150800984079480AA934F0FCFE774834F0CBFF0028A3
S315080098508BD13378033B012B0AD87348754934F00A
S31508009860EFFE714834F0BEFF10B173483AF03CF988
S31508009870724842E708EBC308714A98F80430DBE7F8
S315080098809DF81B30532B04D00BD8462B11D0512BE7
S3150800989021D16C483AF028F90021204655F068F89D
S315080098A095E103F0DF03542B15D1204633F0A4FFCE
S315080098B08DE1654AD4F82C1564483AF015F9236801
S315080098C063491E68032200232046B04723682046C2
S315080098D09B6898477BE1236801225E6807A90A23EB
S315080098E02046B0470128024605D05A49D4F82C0527
S315080098F05CF06EFD23E79DF81B309DF81C6046EA78
S3150800990003260FFA86FB94F8303506F1040A1EB1D1
S3150800991040F21E418A4515DD002B3FF410AFD4F8FE
S315080099202C154D4832463AF0DFF84C49D4F82C0548
S315080099305CF04EFDEB6B0133EB63842120466AF045
S3150800994024FCFCE6A14659F80C1B4F685BB3494654
S315080099504FF47A7352462046B8478245277B01461C
S315080099600ED03B463E4852463AF0BEF83D49D4F83A
S315080099702C055CF02DFDEB6A0133EB628021DDE7F7
S31508009980384633F021FF824640BB374839463AF01D
S31508009990ABF8AB6B832101332046AB636AF0F5FB6A
S315080099A084F830A5A1E50A2349462046B847277B0F
S315080099B0384633F009FF00283FF497AD21460BF1EE
S315080099C0030251F80D3B0592D3F804A020464FF444
S315080099D07A73D047059A82427FF487AD59F80B000F
S315080099E06AF054FB5A4682460021484651F0E0FB8D
S315080099F0824502463ED094F83035002B3FF475ADCB
S31508009A005346217B19483AF06FF81949D4F82C05C2
S31508009A105CF0DEFC6B6B01336B6382218EE700BF63
S31508009A20F483012084E30A0884DA00205017002012
S31508009A309CE30A08B9E30A08C4E30A08DFE30A084C
S31508009A40ADE30A0837E40A0854E40A0875CD0A089B
S31508009A5063E40A0867E40A0881E40A08AEE40A0827
S31508009A60CDE40A080AE50A082CE50A0847E50A08C3
S31508009A707EE50A080123022E94F80C9084F8303506
S31508009A807CDD042EB4F80D2079DDB4F80F30B9F179
S31508009A906C0F76D8B9F1370F77D9A9F1380134297F
S31508009AA073D801A050F821F0AFA10008DF9B000889
S31508009AB08B9B00088B9B00088B9B00088B9B0008E0
S31508009AC08B9B00088B9B00088B9B0008D79B000884
S31508009AD067A00008079F00088B9B0008439E0008A4
S31508009AE08B9B00089F9C00088B9B00088B9B00089B
S31508009AF08B9B00088B9B00084DA200088B9B0008D7
S31508009B008B9B0008BF9B00088B9B00088B9B00085B
S31508009B10BFA000086F9C0008AB9800088B9B000844
S31508009B20739C00088B9B00088B9B00088B9B000886
S31508009B3047A100088B9B00088B9B00088B9B00089D
S31508009B408B9B0008E3A100088B9B00088B9B0008F1
S31508009B5049A200088B9B00088B9B000821A10008DE
S31508009B608B9B00088B9B00088B9B00088B9B00082F
S31508009B708B9B0008DB9F00085DA1000800220023DC
S31508009B8085E7B9F1740F3FF490AEAB6B83210133CF
S31508009B902046AB636AF0F9FA5021B94AB948CDF8BC
S31508009BA000904B4663F015FEB649D4F82C055CF0D8
S31508009BB00FFCB5483A46394639F096FF95E4012E2A
S31508009BC008BF4FF40263B148214634F08BFDB04B11
S31508009BD083F800807DE44FF402630022F3E7EB6824
S31508009BE004F585690133EB6004F5A56A4946002248
S31508009BF0012031F8023F5B0B1CBF03F1FF3300FA6B
S31508009C0003F38A451A44F4D1002120466AF040FA43
S31508009C104FF0010B059039F8023F5F0B1BD0013F4F
S31508009C200BFA07F79B4A9B490892C3F30C032D22AC
S31508009C3000970AA809926CF016F823681B683A463A
S31508009C401E460AA900232046B04705993A460AA89F
S31508009C5051F0AEFA0590CA45DDD105986AF016FAB4
S31508009C6023680A901E68042201230AA92CE601210A
S31508009C7013E6894B894A00932021894B8DED028B87
S31508009C800AA863F0A6FD0AA8FFF75DFB0023009368
S31508009C900AAA431C012120466AF03CFA97E72B6A78
S31508009CA0804F814EBA6A01332B62D6F864359A42E0
S31508009CB00DD37E497E4839F0E7FE7E4B93F878321D
S31508009CC013B17B483AF0AEFA55F0A0FF1EE036F025
S31508009CD01DFDD7E90C3253EA020717D0C01A61EB0B
S31508009CE00201002902DA033041F10001724AD6F86E
S31508009CF06435800840EA8170534389101422B3FB07
S31508009D00F2F383424FF000038B41D2DB9FED6B0ADF
S31508009D106B483AF0D7FA88BB6A4E6B4809F050F997
S31508009D2033686A4A68481168136003F580524FF031
S31508009D300009C2F8643983F80090316009F0A0F987
S31508009D40366806F580533046D3F86479FFF7FBFA90
S31508009D50BF1B8742034606D05D493A4641F6861040
S31508009D6045F024F94E46236801220092D3F818904C
S31508009D7032463B4600212046C84728E75048DFF8C8
S31508009D807491DFF874A16AF07BFE3389692B96BF5C
S31508009D90504A002752F8237036F08EFE4E4B4F4A33
S31508009DA03D49CDE900704E4839F09EFEB6F8F412EA
S31508009DB04C4851F0E3F9B6F8F6124B4851F0DEF983
S31508009DC000273AF8021F59F8040B013751F0D6F963
S31508009DD0042FF6D1D6F8C431444EDFF820910C2B67
S31508009DE0A8BF0C239A4637464FF0000BD34593DAA3
S31508009DF0D7F8B00508B9D7F8B405B9F81A1051F06C
S31508009E00BDF9D7F8300708B9D7F83407B9F81214E6
S31508009E1051F0B4F9D6F8100308B9D6F8140339F88E
S31508009E20021F51F0ABF9D6F8600408B9D6F86404F5
S31508009E30B9F8581B51F0A2F90BF1010B1C36203763
S31508009E40D4E704F10D031E44002206F8012C1E4631
S31508009E5013F8012B202AFAD03046FFF774FA0022AD
S31508009E603044864203D010F8013C202B48D0204BC2
S31508009E7030461B689847002120466AF086F9A6E610
S31508009E80BFE70A088A840120EAE70A085C17002067
S31508009E90DA84012068D800207C25350196E50A0871
S31508009EA08FE50A08103700206056001077DA0A088E
S31508009EB0183700200050001040420F000024744953
S31508009EC03816002054170020603E0120581700203D
S31508009ED0C5E50A08ECF20708A0E50A08846201FB52
S31508009EE0A6E50A08AF920B08B7920B08D8A9002076
S31508009EF05C3E0120DCF20708AE580010F658001048
S31508009F0000F8012DADE7AB69B4F80DA0B4F80F6001
S31508009F10B4F81170B6480133AB616B6800933246EA
S31508009F203B46514639F0E0FD23463A46314650460F
S31508009F3033F00EFC28B1AF49D4F82C055CF048FA8A
S31508009F4006E032465146204633F0E4FB814620B906
S31508009F50EB6B0133EB6384218EE704F1130BBAF143
S31508009F60000F1BD1F21944F26B139A4206DD44F234
S31508009F706C339E4202DCA0486AF082FD9F4BB3F820
S31508009F808AACBAF1000F11D09D4940F25E2045F027
S31508009F900DF8AB6B0133AB6383216DE73A4659463F
S31508009FA06CF0DAFB20466AF0F4F810E633F0FEFBB4
S31508009FB050B93A46594648466CF0CEFB914B93E861
S31508009FC0030069F00AFFEDE76B6800938E483B468D
S31508009FD03246514639F088FDF0E76B69B4F80D90C2
S31508009FE0B4F80FA0B4F8117001336B613A462346F2
S31508009FF05146484633F0ACFB064608B183499BE711
S3150800A00052464946204633F085FB0028A0D03A46FA
S3150800A010314651F0CDF86AF039F804230A900096D3
S3150800A0200AAA012120466AF075F8744E784896F80F
S3150800A0308C9C6AF07FFDD6F814320746B9F1000FFA
S3150800A0400AD1013304D1734839F04EFDC6F81472AB
S3150800A05071486AF015FDBAE5984204BF4FF0FF3320
S3150800A060C6F81432F4E7B4F80D3023BB0AA86AF030
S3150800A07007FD2B69694801332B6139F035FD49F035
S3150800A080A3FD33F093FB20B9654839F02DFD2EF07A
S3150800A090BFFC0AA86AF076FDDFED627A60EE277AE1
S3150800A0A017EE900AFEF726FB02460B465E4839F085
S3150800A0B01BFD0421E0E6B3F5807FFAD048E7AB68DC
S3150800A0C0B4F80D70B4F80F60B4F811900133AB60B2
S3150800A0D04A4623463146384633F03AFB08B15349D7
S3150800A0E02AE732463946204633F014FB0646A7B916
S3150800A0F0424BB3F88A3C83B1414940F25E2004F1F1
S3150800A1000F0644F053FF4A46394630466CF0FAFAD1
S3150800A1100023009332464B46BCE5002EF8D117E7DC
S3150800A120434B1B786BB1434E3378434A002B08BF29
S3150800A13016463046FFF707F90121034600913246D5
S3150800A140A9E53E4EF0E7B4F80F10B4F80D0049BA89
S3150800A15040BA89B280B24DF083FA23E7637B022BBB
S3150800A16007D0032B08D0012B7FF423AD50F07EFED9
S3150800A17018E750F0D1FE15E7002050F0F5FE064628
S3150800A18068B1D0F8E434012102460091204603EB79
S3150800A190830369F0BFFF304650F014FF02E7EB6B0C
S3150800A1A0842101332046EB6369F0EFFFFAE6244B7E
S3150800A1B01B780BB950F05AFE002050F0D5FE064623
S3150800A1C000283FF4C5AED0F8E434012102460091D8
S3150800A1D0204603EB830369F09DFF304650F0F2FEFC
S3150800A1E0F5E4184940F25E2044F0E0FEEFE400BFD3
S3150800A1F0E4E50A0828E60A0830160020605600102A
S3150800A2003FE60A08FCED00207EE60A08CBE60A08C7
S3150800A210E3E60A08F7E60A087021001017E70A08B5
S3150800A22027E70A0800007A444FE70A0865E70A089C
S3150800A230E9820120718201207053001012840120E6
S3150800A240118401207CE70A080749CBE7012300228D
S3150800A25000928DF828300AAA19461CE51BB0BDECF9
S3150800A260028BBDE8F08F00BF98E70A0800000000DF
S3150800A2702DE9F04F2DED068B084B8BB0D86835F0DD
S3150800A280EDFB40280EDC064941F605200BB0BDEC77
S3150800A290068BBDE8F04F44F089BE00BF001B0020C6
S3150800A2A0606C0B0844F0A0F9C94DCA4F05F5A044E7
S3150800A2B0002840F0FD8305F138006AF0E1FB36F02E
S3150800A2C025FA02460B46C4482EF0A6FC10B9C34828
S3150800A2D046F084FEC1486AF01AFE08B148F096FEB8
S3150800A2E0BF4869F0DAFDBF4869F0D7FDBE4869F096
S3150800A2F0D4FD97F862359E06C3F3401105D4BB4BCF
S3150800A30093F85C11C81E4142414194F8FC32B848A2
S3150800A310DFF82C8361F3C303002284F8FC326AF069
S3150800A3203CF903201AF0E8FFB7F9D830B14807EE30
S3150800A330903AF8EEE77A0022B4EEE70AF1EE10FA60
S3150800A3404CBF012111466AF028F96AF0F1F997F82D
S3150800A350633513F0080F064612D09FEDA70AA748E3
S3150800A36039F0B0FF60B1D8F800204AB1B31AC82B4B
S3150800A37006D90093A249334642F2C52044F016FE98
S3150800A38094F89832C8F80060C3B995F87438DA07B3
S3150800A39014D4914869F076FD80B9944B93F8DC2E75
S3150800A3A0002A40F00184974B1B783BB954F01AFBFE
S3150800A3B020B1954941F2D7706AF02DFF2EF082FC44
S3150800A3C094F8FD3260F3000384F8FD32B7F8386379
S3150800A3D0304669F0E1FF002800F0F18397F83B1357
S3150800A3E030466AF08BF8014688486AF0A0F82EF0E5
S3150800A3F083FC014686486AF09AF8B7F8580569F06A
S3150800A400CBFF002800F0E083824E96F825103046F0
S3150800A4106AF04DF9014686F825007F486AF087F804
S3150800A42010B17E486AF02CFBDFF81882DFF8189224
S3150800A430002638F8020F35F043FA014609EB060004
S3150800A4400C366AF074F8602EF3D175482DF0A8FA28
S3150800A45074482DF0A5FA03201AF04EFF3B8A07EE42
S3150800A460903AF8EEE77A0D20B4EEE70AF1EE10FA24
S3150800A4704CBF0123002384F878321AF03DFFB5F863
S3150800A480604E694BB5F8629E03EB840383ED000AC0
S3150800A490D5F8643E01340133A4B24C4508BF002404
S3150800A4A09945A8BF9946B9F1010FC5F8643E95F8D4
S3150800A4B0383CA5F8604ED4BF0122002262F345134A
S3150800A4C085F8383C40F39B8304F1FF38404654F046
S3150800A4D0C7FCA61E3046B0EE408A54F0C1FC38EEE2
S3150800A4E0408AA4EB0904B44240F0738308F1FF30B4
S3150800A4F054F0B6FC4D4E40463446B0EE408AA4ECC5
S3150800A500010A54F0ADFC4A4B84ED000AD3ED007AFB
S3150800A51095F8383C474C30EE480A0320B4EEE70A73
S3150800A520F1EE10FAD7EDFB7A86ED020ACCBF0122CE
S3150800A530002262F30003F1EE677A85F8383CB4EE40
S3150800A540E70AC4BF012385F8543C95F8383C214EE8
S3150800A550F1EE10FA4CBF0122002262F3410385F89E
S3150800A560383C1AF0C9FE4FF00008B0EE408AB6F83B
S3150800A570FC0469F011FF002800F088809FED2E0A80
S3150800A58006F59E6128EE000A08A82BF0E9FB089A52
S3150800A590DFED2A6A9DED096A07EB0813134493F861
S3150800A5A0F72493F8F63407EE102A07EE903AB8EE39
S3150800A5B0C77AF8EEE77A27EE267A67EEA67AF7EEF6
S3150800A5C0006A76EEC66A67EEA67AE7EE067A41E094
S3150800A5D000000010605600108021001010210010A5
S3150800A5E0882E0010A02E0010BC2E0010002000108F
S3150800A5F024AB002058AA00208096984A68210010AB
S3150800A600BB6C0B083D860120F16C0B081811001075
S3150800A6102011001068420020281100106008001060
S3150800A620A005001078050010600C0010240C00101E
S3150800A630785C0010784100200AD7A33C0AD7233C4F
S3150800A640E0540120FE6200103411001033335340E9
S3150800A650C2F5A8BF1FED037AF5EEC07AF1EE10FA3F
S3150800A66040F2D082F0EE046AF4EEE67AF1EE10FAE1
S3150800A67080F2CB825FED0A6AB0EE470AA7EEA60A19
S3150800A680236880EE070A1B682046984708F10103ED
S3150800A690022B06F1100604F178044FF001087FF446
S3150800A6A066AFDFF8F883DE4CDFEDDE9A08F10307C4
S3150800A6B000266368002B00F0E482597A06A844F065
S3150800A6C023F863689DF81890197A9DED07AA08A8DB
S3150800A6D044F01AF862689DF82030927808EE102A3D
S3150800A6E0B9F1000FB8EE488A0CBFB0EE699AB0EE21
S3150800A6F04A9A002B40F0AF84F0EE698A6368EBB1A2
S3150800A700227A002A00F084829FEDC77AE0689FEDDE
S3150800A710C50A0368C8EE077A1B68B7EE007AF4EE36
S3150800A720C77AF1EE10FA58BFF0EE477AF5EEC07A1E
S3150800A730F1EE10FA58BFB0EE670A9847B0EE480A2D
S3150800A74008A869F087F8BDEEC99A9DF8203008F880
S3150800A750013F19EE103AB0EE680A27F8023F08A83A
S3150800A760013669F085F8BDF820303B81042E04F1E6
S3150800A77018049ED1AD48AE4C2AF03EF8AD4843F0D9
S3150800A78057FFAD4846F0B6F9AC4841F015FAAC4863
S3150800A79042F014FEAB4832F011FAAB4822F060FFE3
S3150800A7A0AA484AF039FDAA484FF068FDA94851F071
S3150800A7B01BFAA9484FF062FBA84850F0AFF8A84822
S3150800A7C050F0ACF84FF0824304F58670C4F80831AF
S3150800A7D04FF088F995F8E0B4BBF1000F40F0B78068
S3150800A7E0DFF8BCA2DFED908A012385F8E0349AF9F8
S3150800A7F0803C07EE103ABAF9823C07EE903A9AF98D
S3150800A800813C06EE903AF8EEE77AF8EEE66AB8EE9C
S3150800A810C77A67EEA67ADFED936A67EEA67ADFED6A
S3150800A820926A77EEA77A0AF67C4AE7EE267AB1EEBE
S3150800A8300E7AFCEEE77A17EE903AA5F8DC331AF9A9
S3150800A840033CDFED8A7A08EE103AB8EEC88A28EE9D
S3150800A850077A78EE277AC7EE277A17EE900AFDF779
S3150800A86049FF9FED670B41EC110B05F0C9FA1AF881
S3150800A870023C07EE903AF8EE677A59EC108BC7EE71
S3150800A880A87A17EE900AFDF735FF5FA3D3E90023F0
S3150800A89006460F4640464946FDF784FF5CA3D3E9C2
S3150800A8A00023FDF77FFF02460B4630463946FDF783
S3150800A8B079FFFEF74FFADAED006AC5F8EC03C6EE43
S3150800A8C0A87ADFED6B6A07EE100A67EEA67AC5ED81
S3150800A8D0F97A77EEC77AC6EEA78ADFED667AC5ED0E
S3150800A8E0F88A38EE278ADFED647AC8EE277A17EEFB
S3150800A8F0900AFDF7FFFE9FED481B41EC100B05F093
S3150800A9007FFA51EC100BFEF725FA07EE900A9FED39
S3150800A9105B7AC5F8E80368EEA78ADFED597AC5F8C9
S3150800A92074B4E8EE877A4FF0FF33A4F6C832A4F67B
S3150800A930C434C5F83434534B136023600023C5ED83
S3150800A940FC7AC5F878B4C5F8D033C5F8D4330320F3
S3150800A9501AF0D2FCF7EE000A39F07AFCFDEEC07A5E
S3150800A9600D2017EE904A1AF0C7FC002CDFED468A38
S3150800A970B0EE409A27DD69F0D3FEF3EE0E7AB4EE18
S3150800A980E79AF1EE10FA414E0BD4D6ED007A77EE3F
S3150800A990C97AB2EE047AF4EEC77AF1EE10FA40F309
S3150800A9A097814FF0FF333A4AC5F83434354B136074
S3150800A9B033600023C5F87434C5F878340023C5F825
S3150800A9C0D033C5F8D43333486AF0B8FA002800F013
S3150800A9D0BC8221201AF090FCF1EE0C7AB4EEE70A5C
S3150800A9E0F1EE10FA40F1B1822B486AF0CBF8F7EE97
S3150800A9F0007AB4EEE70AF1EE10FA40F3A98251E0C4
S3150800AA00000000000000244000000020636E18408B
S3150800AA10000000C01C3D9E3F000000000000E03F13
S3150800AA2080540120000000000000C842E007001022
S3150800AA3000100010280800103808001050080010F0
S3150800AA4070080010E8090010700E0010780E00104B
S3150800AA50500F0010600F0010980F0010C80F00105C
S3150800AA60D40F00100AD7233C3333CB41CD4C6D436A
S3150800AA700AD7E94133938843000095432B87963FCD
S3150800AA80583934BE000080BF00007A443C040010E8
S3150800AA9038040010102100105053001089020010CD
S3150800AAA060A600107A4940F2322053F089FF4FE23F
S3150800AAB095F8483033B105F1380069F0E1FF002315
S3150800AAC085F8483073486AF068F87B894FF47A72DB
S3150800AAD0534307EE903AF8EEE77AB4EEE70AF1EE5A
S3150800AAE010FA3FF5ECAB6C486AF011FA48B197F8E2
S3150800AAF0EA33012B38D1694BD3F82031002B3FF4C8
S3150800AB00DEAB6748002169F0D2FD064685F82D00C0
S3150800AB1030B105F5A04393F9F8320BB94AF030F88D
S3150800AB20A88C84F8F86234F0CBFE95F82E305D4E8A
S3150800AB30584094F8FC3260F3000384F8FC3296F926
S3150800AB406930012B7FF4BBAB574890F85C31032B77
S3150800AB5010D1002206F16000114669F01EFD534827
S3150800AB6038F0C2FFFFF7ABBB022BCAD14B4BD3F869
S3150800AB701831C3E7B7F8703300EE103AA0F5FE5067
S3150800AB80B8EE400A39F0E4FB00283FF498AB0022FF
S3150800AB90114606F1600069F000FDB7F870134448E5
S3150800ABA038F0A2FFFFF78BBB83F8DC0E83F848006A
S3150800ABB0404838F099FF53F015FFFFF7FFBB94F8AC
S3150800ABC0D81201F001010FE494F8D812C1F38001FC
S3150800ABD023E4304654F044F9B146013E3046F0EEDF
S3150800ABE0408A54F03DF938EEC00AB4EEC80AF1EED0
S3150800ABF010FAC8BFC846C8BFB0EE408A73E44FF023
S3150800AC00000873E4B0EE470A3AE59FED2B0A37E5EC
S3150800AC1022693AB9294940F25E2044F0C7F99FED06
S3150800AC20268A8BE5DA799B799A4204D9244941F236
S3150800AC30EA7044F0BBF922786368B2B1DB7907EEB3
S3150800AC40903AF8EEE77AF4EEC87AF1EE10FA01DDFA
S3150800AC500023237021782069002269F09EFC23785E
S3150800AC60002BDCD09FED178A68E59B7907EE903AB2
S3150800AC70F8EEE77AF4EEC87AF1EE10FAEAD501238F
S3150800AC80E7E7F0EE698AB0EE699AB0EE698A55E5AB
S3150800AC90856D0B08380000101021001000100010F8
S3150800ACA008000010D8A90020002000106C6C0B08C2
S3150800ACB09A6C0B08206D0B0800000000426D0B080B
S3150800ACC0506D0B080000C84200247449CDCC4C3D99
S3150800ACD0FEF760F9D5F834345FED057A07EE100A09
S3150800ACE0002B87EE278A40F32D8156ED017AF5EE83
S3150800ACF0C07AF1EE10FA40F32581D5F87C24944207
S3150800AD003FF461AE78EE677A1FED107AC5F87C4499
S3150800AD10F4EEC77AF1EE10FA3FF555AEE31A002BBA
S3150800AD20B8BF5B421D2B7FF74EAED4490A2068F0A8
S3150800AD306DFED5F87804D14B013007EE904A0A2803
S3150800AD40F8EEE77AC5F87804A8BF0A201946C0B213
S3150800AD50C3ED007A2BF0F6FDFDEEC07AD5F8343453
S3150800AD60C5EDFD7A17EE904A04F13C029A42FFF6C9
S3150800AD7018AEC349E21A002A91F8781CB8BF5242A5
S3150800AD808A42FFF620AE07EE904AB8EEE70ADFEDF4
S3150800AD90BD7ABB4ABC4C85EDFE8A80EE277A02F660
S3150800ADA0884002F684462146002BD0ED007AD6ED7F
S3150800ADB0005AA1EC017A02F68C4065EEA75AD0ED4E
S3150800ADC0007A85EDFF9A65EEA75AC7EE257AC1ED9A
S3150800ADD0007AB5F8DC1306EE901AF8EEE64A84EE29
S3150800ADE0A87A27EE277ADFEDA97A27EE277ADFED0C
S3150800ADF0A87A84ED027A67EE277AC4ED037A40F3DF
S3150800AE009380D4ED0E7AF5EEC07AF1EE10FA40F39F
S3150800AE108B8094ED126AB2F9901CB2F9923C38EE26
S3150800AE20678A77EE067AB6EE005A67EE857A37EEC7
S3150800AE30466A67EE887A0B44C4ED047AC6EE087A49
S3150800AE4004F1800107209FED936AF5EEC07AF1EED2
S3150800AE5010FA58BFB0EE676A07EE903AF8EEE77A4E
S3150800AE6027EE077A67EE866AD5EDF67AC4ED066AA6
S3150800AE7067EE857A02F6984367EE877A93ED007A4D
S3150800AE8084ED056A02F6944267EE877A92ED007AB7
S3150800AE9067EE877A95EDFC7A67EE877AC4ED077ACE
S3150800AEA076EEA77A64EE856AC4ED087A86EEA87A05
S3150800AEB027EE277AC7EE257A84ED097A9FED767A0A
S3150800AEC0C4ED0A7A67EE877A9FED747AC4ED0B7A39
S3150800AED020EE270AC0EE077AC4ED0C7A68F096FDD4
S3150800AEE004F19C0319460720039368F08FFDD5F8F3
S3150800AEF07404039AA36A13600628DCBF0130C5F8F8
S3150800AF0074040728236BC4F88030A8BF0720C4B28E
S3150800AF10634920462BF016FD624985EDF40A204662
S3150800AF202BF010FD85EDF50A5F4CA4F140050FCD19
S3150800AF300FC40FCD0FC40FCD0FC495E80F0084E8DA
S3150800AF400F0040E5C5F8F4431DE7584869F098FD39
S3150800AF50574B012683F80A61564B1B7D002B45D0BB
S3150800AF60554D2C6A237DA3B1A72332460DF117014F
S3150800AF7020468DF817306AF09CFF042206A9204661
S3150800AF806AF0B0FF9DF818309B0706D400238DF8A9
S3150800AF90243000232B722B7328E09DF81A309DF875
S3150800AFA01B20DFED467A1B0243EA02439DF819206F
S3150800AFB0134308EE103AB8EEC88A28EE278ADFED62
S3150800AFC0407AB4EEE78AF1EE10FADFDCDFED3D7A7F
S3150800AFD0B4EEE78AF1EE10FAD8D48DED098A35F089
S3150800AFE095FBC5E906012E7285ED038A364B374C6B
S3150800AFF093E8030068F0F1FED4ED007A3448B8EE21
S3150800B000670A20EE280A39F05DF9F8B1314B304865
S3150800B0109B684AF6AA221A6069F032FD2E490B6827
S3150800B02040F6B732934211D82068034493420B6026
S3150800B0300CD919F0D7FE48B1284C0023637119F0D2
S3150800B040B7FEE081BFF36F8FBFF34F8F0BB0BDEC38
S3150800B050068BBDE8F08FDDED098AB9F1000F3FF4E4
S3150800B0604DAB60690368F0EE680A1B68B0EE4A0AE1
S3150800B0709847B0EE408AFFF741BB00BFB8040010FE
S3150800B08060A600100000704200040010F90F494045
S3150800B090F7290F4000000000DDD03C3F0020A44502
S3150800B0A09C04001080040010340400105053001053
S3150800B0B0002000106854012050410020CDCCCC3728
S3150800B0C00000F04200004842687D0708A8210120D8
S3150800B0D040160020AC210120E45401200000002085
S3150800B0E02DE9F04F2DED028BAA4893B0FEF71AF81A
S3150800B0F00546002841F02F84012449222346A64903
S3150800B100A648009435F016F8A5486AF0C5F9A54989
S3150800B110A5486BF019FBA54B9C6354F077FDA44931
S3150800B120A44869F0D9FCA449A44869F0D1FCA4490B
S3150800B130A44869F0CDFCA449A44869F0C9FCA4490F
S3150800B140A44869F0C5FCA44B1E78002E00F0418384
S3150800B150A249A34869F0C4FCA248A34969F0BCFC0B
S3150800B160A24B93F81023100701F152809A4B1B78D3
S3150800B1702BB93DF0E3FE9E499E4869F0ADFC9E4B17
S3150800B1801B6840F21942C3F30B03934205D19B494E
S3150800B1909B4A9C48521A1AF097F89B499B4A9C4826
S3150800B1A09C4E521A1AF090F8002461F052FF0134AE
S3150800B1B031464FF0FF32984808F0B8FA06F0C2FB5D
S3150800B1C0202C06F12006F0D19449954869F088FCB0
S3150800B1D0944B03F5805494F81432002B01F02F8019
S3150800B1E09149924869F080FC9149924869F070FC4F
S3150800B1F09149924869F06CFC914868F0ACFF914B14
S3150800B2005A681AB9904A11685960136048F0DCFC0C
S3150800B210002801F0A0838D498D4869F059FC8D49B5
S3150800B2208D4869F055FC8D498D4869F061FC8D495A
S3150800B2308D4869F055FC8D498D4869F051FC8D495A
S3150800B2408D4869F04DFC8D498D4869F055FC8D494E
S3150800B2508D4869F041FC8D498D4869F03DFC8D4962
S3150800B2608D4869F039FC8D498D4869F035FC8D4962
S3150800B2708D4869F035FC29F007FC8C4846F092FAAF
S3150800B2808B498C4869F024FC8B498C4869F020FC72
S3150800B2908B4A8C48052154F029FD8B498B4869F067
S3150800B2A017FC8B498B4869F017FC8B498B4869F06A
S3150800B2B013FC8B498B4869F017FC8B498B4869F05E
S3150800B2C013FC8B498B4869F013FC8B498B4869F052
S3150800B2D00BFC8B498B4869F00BFC8B498B4869F052
S3150800B2E007FC8B498B4869F003FC8B498B4869F04E
S3150800B2F0F3FB8B498B4869F0F7FB8B498B4869F060
S3150800B300F3FB8B498B4869F0EFFB8B498B4869F057
S3150800B310EBFB8B498B4869F0E7FB8B498B4869F057
S3150800B320D7FB8B498B4869F0DFFB8B498B4869F063
S3150800B330CFFB8B498B4869F0DBFB8B498B4869F05F
S3150800B340D7FB254B1B78002B41F0E68288498948B4
S3150800B350894C69F0BDFB894A8948052154F0C6FC29
S3150800B360884A8948102154F0C1FC884A8848112126
S3150800B37054F0BCFC874A8848102154F0B7FC874A29
S3150800B3808748112154F0B2FC864A8748112154F0A7
S3150800B390ADFC0BE1601A002078790B089CAB002005
S3150800B3A0CC55012089790B08AD860120103700207D
S3150800B3B0459905088C790B081D9D050896790B0893
S3150800B3C065AC0408A9790B085D400408B5790B0833
S3150800B3D0FDAE0408C8790B08E982012093550708D1
S3150800B3E0D6790B08D1660B08995B050860560010DC
S3150800B3F0053F0408978B0B08002004E00000022094
S3150800B40000000320DCB40020C8E80010000001108A
S3150800B410B8B40020C053002030B3002095E30108DB
S3150800B4203B7C0B08C057002085F3010841A30A0896
S3150800B430ADE301084B7C0B08A1F40108547C0B080A
S3150800B440D06A0020E0690020F01700204D3005087A
S3150800B4505E7C0B080D300508697C0B08613205080F
S3150800B460757C0B087D3105087F7C0B082D31050896
S3150800B470877C0B0855310508917C0B08A531050812
S3150800B4809A7C0B08492D0508A27C0B08252D050872
S3150800B490AC7C0B08A92C0508B47C0B08CD2C050838
S3150800B4A0BE7C0B08F12C0508C77C0B08701700102A
S3150800B4B05D500708CF7C0B0855E90408ED7C0B089E
S3150800B4C0EDCC0408F87C0B087B5007080D7D0B08AB
S3150800B4D0F1510708187D0B08F7510708237D0B085B
S3150800B4E06F5007082F7D0B0875500708B63E0B08E6
S3150800B4F0E5D30408B3350B08A1D20408B11A0B0822
S3150800B50095CD0408367D0B08E1CD0408477D0B0868
S3150800B5102DCE04085D7D0B08598A0308777D0B0834
S3150800B52085CD04087E7D0B0875CD0408917D0B0832
S3150800B530635007089E7D0B0869500708AD7D0B0808
S3150800B540C5CE0408BA7D0B0881500708C27D0B08D2
S3150800B55069CF0408CD7D0B08E5260408E37D0B08B2
S3150800B560F1030508EE7D0B0879CE0408037E0B0867
S3150800B57049190508177E0B08807600203119050839
S3150800B580257E0B08B9520708347E0B08995207081E
S3150800B5903E7E0B08ED520708497E0B08CD52070878
S3150800B5A0547E0B0871180508607E0B08AB49AC4839
S3150800B5B069F08EFAAB49AC4869F08AFAAB49AC48EF
S3150800B5C069F086FAAB4AAC48052154F08FFBAB49C3
S3150800B5D0AB4869F07DFAAB49AB4869F07DFAAB49EF
S3150800B5E0AB4869F07DFAAB49AB4869F071FAAB49EB
S3150800B5F0AB4869F06DFAAB49AB4869F069FAAB49F3
S3150800B600AB4869F069FAAB49AB4869F065FAAB4AE9
S3150800B610AB48112154F06AFB94F85438002B00F01B
S3150800B6201A86A84C48F040F9B4F8D40268F0B4FE7B
S3150800B63068B104F5D36393ED000ADFEDA30AA34AC4
S3150800B640A349A448B8EEC00A002353F075FFA24BDD
S3150800B650A24FA34EA34C7B6003F14001B96003F1EE
S3150800B6605001F96003F16001716003F1A001B03384
S3150800B670F36094F8793ADFF84C92B1604FF0140809
S3150800B68008FB03F303F26C734FF07E524FF0000B86
S3150800B6904B4404F67C20BA613A617A61B261326140
S3150800B6A07261C4F8A83AC4F89CBA69F0E7F894F845
S3150800B6B0C93ADFF8ACA2C4F8B07A08FB039303F2E0
S3150800B6C06C7304F6CC20C4F8F83AC4F8B4AAC4F8E3
S3150800B6D0ECBA69F0D3F80AF17803C4F8043B94F895
S3150800B6E0193BC4F8006B08FB039303F26C7304F66A
S3150800B6F01C30C4F8483BC4F83CBB69F0BFF80AF1F3
S3150800B700F003C4F8543B94F8693BC4F8507B08FB33
S3150800B710039303F26C7304F66C30C4F8983BC4F8D0
S3150800B7208CBB69F0ABF80AF5B473C4F8A43BC4F84B
S3150800B730A06B42F0A7FF99F8B4335F060BD56A48A9
S3150800B74048F026F9694848F023F9694848F020F98D
S3150800B750684848F01DF9684830F09AFD674830F0A7
S3150800B76097FD674830F094FD664830F091FD01205A
S3150800B77049F09AFD644830F08BFD644830F088FD46
S3150800B780504B93F81323D60740F1798593F855253E
S3150800B790D40704D593F85435DB0940F068855C492D
S3150800B7A040F25E2043F002FC464B93F80D269006C5
S3150800B7B000F1BE8593F8E1425649574869F088F981
S3150800B7C05649574869F084F9204655F037F900F08C
S3150800B7D0B9BD544B3B4C93E8030068F0FEFA524B54
S3150800B7E093E8030068F0F9FA504838F07DF93122F9
S3150800B7F031464F486AF086FF94F86D015AF046FDC7
S3150800B80094F8E9025AF042FD4A494B4869F064F94E
S3150800B8104A4856F073FD4A4A536843F40003536096
S3150800B82061F017FC4749484A4448082306F0BEF920
S3150800B83006F088F8454856F061FD454856F05EFD25
S3150800B840444B5A685B6C538061F003FC424A137898
S3150800B850591E012940F286804048A8E05519050876
S3150800B8606C7E0B08C9180508797E0B08D5180508DB
S3150800B870827E0B08B11805088C7E0B087519050819
S3150800B880967E0B089D2D0508A57E0B08015807080E
S3150800B890B57E0B0811190508C87E0B08F5180508AA
S3150800B8A0D57E0B0895190508DE7E0B08095807088A
S3150800B8B0E87E0B083D250508F67E0B08C52D05080C
S3150800B8C0017F0B08605600100000000040AC002005
S3150800B8D00B7F0B0820400020D4940010A0560120AE
S3150800B8E08056012000000010A07400206874002013
S3150800B8F030740020F873002058560120485601205D
S3150800B900385601202856012050300020703000207B
S3150800B9101E7F0B08D9F60308787F0B0851300408F8
S3150800B920807F0B08687D0708687D0708DD790B08A6
S3150800B930F3820120B9E30308F2790B0864A2002018
S3150800B9400023014024170020EC26012040A20020F5
S3150800B9501CA20020F83C0120A8A200204C960A0848
S3150800B960D83C002013495160012B14D1124B196C95
S3150800B97041F010011964196E41F010011966196E2B
S3150800B980196A41F010011962196A21F01001196249
S3150800B9901B6A0A4B93600A4C0A4AA168B1FBF2F388
S3150800B9A0013B9BB203FB022291420FD0064805F0E9
S3150800B9B051FC00BFD8F807080038024000BD010551
S3150800B9C0A8A20020A08601002E920A08E268002795
S3150800B9D017605760936202231761D760237005F0DA
S3150800B9E0B1FF61F036FB06F0CFF82378022B7FF41F
S3150800B9F033AF03232370E3680922DA6201225A610E
S3150800BA0062685F6252681F611AB1DA6842F0010221
S3150800BA10DA6085221A6005F095FF9E499E4869F00E
S3150800BA205BF8012006F0E0FD34F070FE36F0EAFE21
S3150800BA309A4B93F8B523510700F16E81974991F80F
S3150800BA401033DA0716D5964B5A789AB901225A70E6
S3150800BA5091F85C37029391F85B37019391F85A375E
S3150800BA600093B1F89C33B1F89E238E48B1F8A01321
S3150800BA7034F020F9894991F810339C0716D5884B7C
S3150800BA809A789AB901229A7091F85F37029391F8D9
S3150800BA905E37019391F85D370093B1F8A233B1F898
S3150800BAA0A4238148B1F8A61334F004F97B4991F828
S3150800BAB01033580716D57A4BDA789AB90122DA7014
S3150800BAC091F86237029391F86137019391F86037DC
S3150800BAD00093B1F8A833B1F8AA237448B1F8AC13A7
S3150800BAE034F0E8F86D4B93F81233D90609D56C4B48
S3150800BAF01A7932B901226E491A7140F25E2043F072
S3150800BB0055FA664B93F80D361A0709D5644B5A79D8
S3150800BB1032B9012267495A7140F25E2043F046FA6B
S3150800BB205E4B93F80D36DB0609D55D4B9A7932B92B
S3150800BB30012261499A7140F25E2043F037FA574B69
S3150800BB4093F8983E002B40F069812C46002C00F0B3
S3150800BB50AB81524C5949B4F84220594868F067FD00
S3150800BB60574BB4F8E22257491F46A3F5867068F08A
S3150800BB705EFDB4F80A235449A7F5D47068F057FD5A
S3150800BB805249534868F0A4FF524B00221A7094F8A1
S3150800BB905535DF0703D494F85435DB0915D0DFF89B
S3150800BBA0FC80B8F84410B8F8460034F007F8B8F83E
S3150800BBB046160746B8F8480634F000F80446002F3B
S3150800BBC040F08681002840F0A881434B1B78002B63
S3150800BBD000F0E081314CB4F8120668F0DDFB00286D
S3150800BBE044D094F8D80733F067F93C4B186000281E
S3150800BBF03CD03B4868F0A9FC002800F0D781274FC5
S3150800BC00384CB7F812065AF0FBFAB7F81216E06085
S3150800BC10354833F02FFC2061344C304B344A2260CF
S3150800BC20344A18686260344B344AA26001270322FA
S3150800BC301860626162632361277307F015FA206949
S3150800BC4008F016FE3B46206908AA0F216AF050FA4A
S3150800BC509DF820302769332B00F0E881386807F013
S3150800BC6059FA27486FF0010137F03EFF0B4B93F85E
S3150800BC70B443E40900F0AD8293F8AE29052A00F230
S3150800BC809C82DFE812F0650297028B028E0291020F
S3150800BC90940200BFB1250408FB790B086056001012
S3150800BCA0541A0020ECA40020B4A400207CA4002090
S3150800BCB0697A0B088B7A0B08AD7A0B08F97A0B08A8
S3150800BCC0CCAC0020FF7A0B080B7B0B08019F0508FC
S3150800BCD0157B0B08EA820120E9820120045601201F
S3150800BCE0D818002014180020477B0B08482101208B
S3150800BCF0A4F8070884F80708F417002064F807086A
S3150800BD00817B0B080AD7233CDB0F494000006144BE
S3150800BD1000007A44809F554803F6F862D2ED007A0F
S3150800BD201FED087AF4EEC77AF1EE10FA17DC93EDF8
S3150800BD30737A5FED0B7A5FED0B6A93F8543527EE4D
S3150800BD40277AF6EE007A27EE277A1B07C6EE877A59
S3150800BD501FED117A67EE877A48BF77EEA77AB0EEBD
S3150800BD60047A27EE877A1FED150AB4EEC07AF1EE4B
S3150800BD7010FA18DD17EE900AFCF7BCFCA9A3D3E964
S3150800BD800023CDE900018E4940F25E2043F00EF90A
S3150800BD908C4B93F80F365F0737D58B4940F25E20F8
S3150800BDA043F004F94AE69FED897A894B67EE877A6C
S3150800BDB0002287EE800A4FF08BFA5A60F0EE087A76
S3150800BDC080EE276AF7EE007A36EE277AA0EE007A3A
S3150800BDD0C7EE876A77EEC67A26EE267AE0EE007A0E
S3150800BDE083ED007AB1EE477A83ED027ABFEE007AE8
S3150800BDF0A0EE007A67EEA67A37EE077AC3ED047AE4
S3150800BE0027EE267A83ED037AC2E7724803220421D5
S3150800BE1033F0C4FC704868F02AF90FE66F4C0F330C
S3150800BE205B01C4F8903014230022C4F8943004F15E
S3150800BE30A800012384F8A330C4F88C2068F020FEFB
S3150800BE40A36923B9664B1A68A26114341C60654B52
S3150800BE501A885B6813449BB22946012099B1002AC7
S3150800BE607FF473AE5F4B604ADA605C4A9A6040F2D0
S3150800BE7059121A8010225A605C495D4800221A61DC
S3150800BE8068F026FE61E6002AECD0B2F5AC7F04D84D
S3150800BE900146B3F5AD7FE1D357E6B2F5B47FDED8F8
S3150800BEA00121B3F5B57FF6E74E4B1A88002A3FF411
S3150800BEB050AE986803681B689847031EBFF649AEDC
S3150800BEC022464C4940F25E2043F070F801243DE6D4
S3150800BED0874205D1484940F25E2043F067F874E688
S3150800BEE098F83036082B96BF444A454A52F823201C
S3150800BEF0106851680EAB03C3324B93F838365806B0
S3150800BF0044BF0B4643F000430EA9384648BF0F937B
S3150800BF105BF05EF83B4B1F60E4B12A4B93F8323670
S3150800BF20082B96BF354A364A52F8232051681068BE
S3150800BF300CAB03C3234B93F83836DB091CBF0B46FF
S3150800BF4043F000430CA9204618BF0D935BF040F858
S3150800BF502C4B5C601B4B93F85535D90710D4194BFD
S3150800BF6093F85435DB0907D02748C0F8D0735FB972
S3150800BF702648C0F8D04354B9254B01221A7024E646
S3150800BF80244869F001F9EAE768F071F8F0E768F023
S3150800BF906EF8F1E70B4BB3F8F40268F0FDF90028E8
S3150800BFA03FF418AE1C4830F073F913E6B4F81226BD
S3150800BFB01A491B4868F03BFB21E600BFAFF3008037
S3150800BFC0FF790B0860560010417A0B08DB0F4940D1
S3150800BFD0CCED00205F7A0B0858490020587F0020D6
S3150800BFE0F0170020443E0120CF7A0B08A5990508D2
S3150800BFF0D57A0B08DE7A0B081D7B0B08B4F8070800
S3150800C000ACF80708AC7C0120F8C0001020BD001071
S3150800C010EA820120D0C4001010210010477B0B08CB
S3150800C020D818002000000000F0B30A417B7C43F0DA
S3150800C03007038DF8283000238DF829308DF82A302B
S3150800C0403B7C8DF82B30002B57D14FF08043236370
S3150800C050BB68002B4DD01A68A2615A68E2619B68DA
S3150800C060924A1362FB68002B68D1002353629362DD
S3150800C0708E4C3868E36260238DF8213005F0D6FCD3
S3150800C08038680DF1210201215AF0B6FE0AAA0421E8
S3150800C09038685AF0B1FE386805F0E4FC23691A7F5F
S3150800C0A08DF8282000228DF829208DF82A20186876
S3150800C0B007F030F87E4B236523695B69002B43D074
S3150800C0C01A68A2635A68E2639B68784C0520236461
S3150800C0D006F08AFA774A02231370774A23731046C2
S3150800C0E01423C2F8B03367F0C2FF744837F0FCFC7B
S3150800C0F0BCE5734BA361E361B2E7102B07D14FF0A0
S3150800C10081432363BB68002BA5D16E4BF2E7202B36
S3150800C11007D14FF082432363BB68002B9BD16A4B40
S3150800C120E8E7302B08D14FF083432363BB68002B25
S3150800C13091D14FF07D53DDE7644838E419685162C0
S3150800C140596891629B6893E7614BA363E363BCE715
S3150800C1504FF4F8735F4AADF82E3013805E4B5F4A92
S3150800C16093F8AE395E48032B40F2852318BF0023A7
S3150800C170138030F08DF85B4830F08AF85A4B1C7003
S3150800C180554B93F8B423920623D593F8AE29052A7E
S3150800C1903CD8DFE802F01919191E191E4FF4D0739E
S3150800C1A0D8E74FF42173D5E740F2F113D2E740F20E
S3150800C1B00933CFE74FF40073CCE74C4940F66E00DD
S3150800C1C042F0F4FE3446D9E7494940F66E0042F09B
S3150800C1D0EDFE48494848042207F08EFA00238022DB
S3150800C1E000934FF44271454B454806F063F950F009
S3150800C1F03DFC4449444868F06BFC32F07BFE34F061
S3150800C2003FF8424837F070FCFEF7A2BF4049DCE72A
S3150800C21093F82327002A3EF4A9AFB3F8420068F042
S3150800C220BBF800283EF4A2AF002300937F22394BC7
S3150800C23039484FF4D76106F03DF9FEF797BF012359
S3150800C240D4F81012354884F8143212F061FDC4F897
S3150800C2501802FEF7C5BF0123D4F8501884F85438DD
S3150800C260204646F0FBFDC4F85808FFF7DAB92C4813
S3150800C27047F08EFB2B4847F08BFBFFF795BA93F8F0
S3150800C280580267F0D5FE60B9134B93F8590267F068
S3150800C290CFFE00283FF488AA23482FF0F9FFFFF7BE
S3150800C2A083BA22482FF0F4FFEEE700BF48210120A9
S3150800C2B000004842EE820120A0450020A37B0B081F
S3150800C2C08FC2753D8FC2F53D8FC2753E4F7B0B08F9
S3150800C2D052491D39F681012060560010F48101206B
S3150800C2E02880002008800020AC860120BE7B0B0831
S3150800C2F0DE7B0B08F4550120A018002031B505088F
S3150800C3009842002045B305081A7C0B08237C0B08C5
S3150800C310037C0B08CD0A0408084D0020C0570020EE
S3150800C320E0400020984000206856012074560120FD
S3150800C33093F85435DB0940F01383BA4940F25E207E
S3150800C34042F034FE22202FF0E5FF002863D1B64BD9
S3150800C350B64CB3F83273B3F83463A368002B5AD1DA
S3150800C360384668F019F8002855D0304668F014F8B1
S3150800C370002850D0AE480522394633F00FFA052278
S3150800C3803146AB4833F00AFA384659F039FF394690
S3150800C3902060A74833F06EF86060304659F030FFE9
S3150800C3A03146A060A24833F065F863682268E06009
S3150800C3B0012606FA03F39BB2138306FA00F0A36874
S3150800C3C080B2188332460F230DF1230120468DF8DB
S3150800C3D0233069F06EFD32460DF12201204669F0E0
S3150800C3E081FD9DF82230B12B00F0CD82BD2B12D1F4
S3150800C3F03546C42320228D4C8DF82420204602225F
S3150800C40009A98DF82530256169F053FD012389486E
S3150800C41023752FF03DFF844B93F82A42204667F098
S3150800C42007FE002840F0B2827F4C834994F8410207
S3150800C43049F096FB94F80803804949F091FB48F0C7
S3150800C4400FFF04F69E46082504F6CF4414F8012F7C
S3150800C45036F8021F7A4833F0A1F9013DF6D1794939
S3150800C460794868F045FB7949794868F031FB79499C
S3150800C470794868F02DFB7949794868F02DFB6A4BB5
S3150800C48093F86135D90633D5764910A867F018FDB3
S3150800C4909DF84030002B00F085829DED118A18EE3C
S3150800C4A0100AFCF727F9024606460B466E480F4661
S3150800C4B037F01AFBB4EE488AF1EE10FA0ED6DFED25
S3150800C4C06B7AB4EEE78AF1EE10FA07DCDFED687AEC
S3150800C4D0B4EEE78AF1EE10FA40F167826549324612
S3150800C4E03B4640F6B20068F096FE634837F0FCFA21
S3150800C4F06249634868F0ECFA624B93F827201AB948
S3150800C500614A1168D96213605E4F604CBC614EF691
S3150800C51060220023C7E90223002604F21C6338467A
S3150800C5203B6287F8266067F0CEFF012331465848FC
S3150800C53087F8273029F058FF564A5749574B536012
S3150800C54091604FF07E531031D1609361136153614E
S3150800C550534A544F93611031516001F580719160CF
S3150800C5601031D160136153614F4ADFF84C919361E2
S3150800C57010315160403191601031D16013615361BF
S3150800C5804A4ADFF838A19361103151605031916001
S3150800C59010311361D1605361A4F5AB642E46B4F82B
S3150800C5A0B0290692104667F0F7FE002800F088804A
S3150800C5B0B4F8B439069A3E4905934FF00C0807EECD
S3150800C5C0903A08FB0698B3F1000B4046B8EE678A26
S3150800C5D018BF4FF0010B68F02AF8059B782000FB7E
S3150800C5E006A0002B40F0EF81324B53F8263004F6B4
S3150800C5F0DA125A604FF07C529A6104F6BA129A60BF
S3150800C6004FF080421A6104F6CA12DA604FF07E5281
S3150800C6105A61C7E903087B6104F51B6387F808B00C
S3150800C6207B604DE0537F0B0860560010685401206C
S3150800C630887F0B085041002058760020307600206D
S3150800C6408C7F0B0861350508987F0B081D7B03084E
S3150800C650A87F0B08EDC90308BB7F0B08A53505089D
S3150800C660C87F0B08A0C70020D47F0B080000DC4257
S3150800C6700000704201800B082A800B0869C803086D
S3150800C68004C80A086842002088B50020B85B001074
S3150800C690200C001094A90020949D0010949C001072
S3150800C6A064A500208054012044A5002024A500206C
S3150800C6B0BD800B08E8F807082C180020187200201F
S3150800C6C00136042E04F16C0407F118077FF467AFEE
S3150800C6D0C44CC54E94F8DC3523F00703002204F257
S3150800C6E0247084F8DC3506F65813A6F8E425C4F851
S3150800C6F04427C4F8503768F0C1F89FEDBC0A4EF0DD
S3150800C700E7FDDFEDBB7A80EE276A04F5EB63F7EE0B
S3150800C710007A36EE277AA0EE007AC7EE876AB8EE78
S3150800C720007A26EE877AC3ED006A04F25C7383ED1D
S3150800C730007ABFEE007AA0EE007A04F5EC6377EE95
S3150800C740C67A37EE077AE0EE007A27EE267AC3ED48
S3150800C750006A67EEA67A04F2647383ED007A04F53C
S3150800C760ED63C3ED007A96F8CD305A074CBF04F551
S3150800C770C86004F5C16000269E4CC462066268F073
S3150800C7807DF89D4820F05CFCA4F5BB6443F082F973
S3150800C790994A9A489A4B9B4982F8E860C2F8EC3065
S3150800C7A0C2F8183168F094F994F8CD308E4C13F02D
S3150800C7B0040F914B14BF03F5AC7003F5907004F5A4
S3150800C7C0BB631E6804F2DC53196804F5BC631A6877
S3150800C7D0C36A59609A601E6003685B6898478A490D
S3150800C7E08A4868F075F98A4B1B78002B00F0568149
S3150800C7F07C4B83F8F85F01350C2D03F11803F8D14B
S3150800C800794B93F860359B0640F18181814837F072
S3150800C8106BF94CF077FF41F0EDFD7F497F4818F042
S3150800C82073FA7F4A7F4B80485A604FF07E51A2F5D3
S3150800C8308C65A2F26C449D60DC605861996119614F
S3150800C8407A4B02F12406A2F608629D60654DDC600B
S3150800C85058610024B2F84C005E609961196185F848
S3150800C8604C4F67F099FD60B12346DFED710A9FEDE5
S3150800C870710A714A7149724852F05EFE012385F8C1
S3150800C8804C3F594B6F4DB3F8960D00242C7067F04A
S3150800C89083FD58B123469FED670A6B4A6B496C487E
S3150800C8A0F6EE000A52F048FE01232B704D4C694BF8
S3150800C8B0C4F8CC3E03F1080003F10C011D1DC4F8B1
S3150800C8C00C3F1B231A22C4F8EC0EC4F8FC1E84F88D
S3150800C8D0103F84F8203FC4F82C0F84F8303FC4F882
S3150800C8E03C1F84F8403F03215B4BC4F89C3E022062
S3150800C8F084F8D02EC4F8DC5E84F8E02E84F8F02E96
S3150800C90084F8002FC4F81C5F44F064FF94F8883E4E
S3150800C91060F3C30384F8883E0124504950480094C4
S3150800C92023464A2233F006FC4D484E4900942346D6
S3150800C93039220C3033F0FEFB354B1A782A4B93F824
S3150800C9406035DB0940F0E780314B1B78002B00F09F
S3150800C950EA802AF017F813B0BDEC028BBDE8F08F19
S3150800C960414847F015F8414847F012F8404847F063
S3150800C9700FF8404847F00CF83F4847F009F83F4899
S3150800C98047F006F8DEE44423102234E5DFED3C0ADE
S3150800C9909FED3C0A3C48214632F036FF3A482FF0D4
S3150800C9A077FC41E59FED398A79E5394837F09CF8F7
S3150800C9B0384B40F20112A3F89821002283ED678ACA
S3150800C9C083F89A2194E53449DFED2D0A51F82610AB
S3150800C9D007900023B0EE480A424652F0ADFD07988C
S3150800C9E002E600BF00000010605600107CD9203E09
S3150800C9F0713D0A3F385C0010E8040010C4800B083B
S3150800CA000000C8C261C204081DF90308CE800B08DD
S3150800CA10E9820120EA800B086F86140054C50020BD
S3150800CA2068640010A0C500200000C84280C5002028
S3150800CA30CDCCCC3D0000C07F80AC002028810B08FF
S3150800CA40E07E002041860120C0AC002033810B081F
S3150800CA50A0710020885A001010CA00203F810B08D8
S3150800CA60A8AB002053810B08C875002098750020D4
S3150800CA70687500203875002008750020D8740020D5
S3150800CA80000000000000C842F875002067A6CA42E8
S3150800CA9079800B08C0C50020F8F80708344B354ADA
S3150800CAA0C3F8C8233449354A3548C3F8CC2368F057
S3150800CAB00FF83449344868F00BF8344B3449996018
S3150800CAC0344A5A6008314FF07E52D96032499A6129
S3150800CAD01A615961314B3248586032489861324878
S3150800CAE0986006301A61D8605961304B04F6C8510F
S3150800CAF059609A6104F6A8111A6104F69C142C4A26
S3150800CB0099600120DC605A613EF054FA70E62948C3
S3150800CB1036F0EAFF7FE6002A7FF41BAF264927484E
S3150800CB2067F0D6FF10E7264868F0B6FC254BB3F841
S3150800CB30FC44204667F030FC38B19FED230A234BAE
S3150800CB4023492448224653F0D1FF1E4BB3F80C451F
S3150800CB50204667F021FC00283FF4FBAE9FED1A0A39
S3150800CB601D4B1B491D48224653F0C0FFF1E600BF86
S3150800CB7000000010981C00209DAF0408A01B002090
S3150800CB80D7800B08F5400408E2800B08703E0120A8
S3150800CB90286C0010E86B00100AD7233C08560120C1
S3150800CBA0E8A10010CDCCCC3D0CA20010903E01208F
S3150800CBB00000C84203810B089199050867810B0894
S3150800CBC0C05601206056001000401C465C18002024
S3150800CBD070810B087841002068180020F041002079
S3150800CBE02DE9F04F2DED0A8BD149D24D002485B0A1
S3150800CBF001F10C004C7469F01DFBCF4BCF48C1E91D
S3150800CC000034CF4B8B6059F04BF9CC4ACD4B1361AE
S3150800CC1021464FF4807205F22A40C5E9014469F0BD
S3150800CC2071FDC94BC5F82C35C84B2B60C84BC5F8E8
S3150800CC303435C84B85F830458122C3F8C026C64A24
S3150800CC40C3F8CC26C54A1A6083F8C446C44BC54AFD
S3150800CC501A60C54A5A604FF47A71C3E90212C34B87
S3150800CC601470C34A1A606422C3E90822DC61C14B06
S3150800CC70C1491C6103F12802C3E902221A6003F1C3
S3150800CC8040025A6003F11802C3E9062203F12002A2
S3150800CC90C3E90822A1F1280006221C7506F02CFD1E
S3150800CCA0B64B1946C3E902441C71B54B41F8143B0F
S3150800CCB00819103469F0BEFA802CF9D1B14AB24984
S3150800CCC0116034315161142744F62061C2E9257197
S3150800CCD0AE49C2F89C10002300204FF07041C2E90B
S3150800CCE00233C2E92A011371C2E90633C2E92333C2
S3150800CCF0A74AA849A84811608624C2F8A04382F822
S3150800CD00A433C2F8AC03C2F8B033A44A11600121B7
S3150800CD10C2F8A043C2F8B01382F8A433C2F8AC0331
S3150800CD209F4A8721C2F810149E49C2F81C1405218F
S3150800CD30C2F820149C49116082F814349B4A9FED6E
S3150800CD40769BC2E901331370D36013741376984A3D
S3150800CD500424013C936082ED069BD36082ED089B18
S3150800CD6082ED0A9B136082ED0C9B136182ED0E9B8C
S3150800CD7082ED109B82ED129B82ED149B82ED169B31
S3150800CD8002F16002E5D18B488B4E9FED8C8A8C4D63
S3150800CD909FED8CBADFF860B2292158F0E5FC8A4885
S3150800CDA0262158F0E1FC89485A2158F0DDFC8848CC
S3150800CDB05B2158F0D9FC874B874825221A71242114
S3150800CDC0864A1A6058F0D0FC8548864A00234021D6
S3150800CDD058F0B4FC834A00234121283058F0AEFCB1
S3150800CDE0804A00234221283058F0A8FC7D4A0023B7
S3150800CDF04321283058F0A2FC7A4A002344212830DF
S3150800CE0058F09CFC774A00234521283058F096FCB8
S3150800CE10744A00234621283058F090FC714A0023B2
S3150800CE204721283058F08AFC6F4B48221A7149224C
S3150800CE3083F824204A2283F844204B2238A1D1E9DA
S3150800CE40000183F864204C2283F884204D2283F85D
S3150800CE50A4204E22C3E90401C3E90C01C3E9140165
S3150800CE60C3E91C01C3E9240183ED069B83ED0E9BF0
S3150800CE7083ED169B83ED1E9B83ED269B1E601E622B
S3150800CE801E641E66C3F88060C3F8A0601C721C731B
S3150800CE9083F8284083F82C4083F8484083F84C40B0
S3150800CEA083F8684083F86C4083F8884083F88C40A0
S3150800CEB083F8A84083F8C4204F22C3E92C01C3E9AC
S3150800CEC03401C3E93C0183ED2E9B83ED369B83ED4C
S3150800CED03E9BC3F8C06083F8E420C3F8E06083F89B
S3150800CEE0AC4083F8C84083F8CC4083F8E84083F820
S3150800CEF0EC403E4B3E481C729FED0BAB23221A7149
S3150800CF003C4A1A60002103F12802C3E9040183EDB3
S3150800CF10069B73E0AFF300800000000000000000ED
S3150800CF20002D31010000000000000000000000F0A4
S3150800CF30F45601204C5701207C0C0808E07E00209E
S3150800CF40097D0B087F900B0884900B08A0FE070844
S3150800CF50C0210120D890002088900B08C4FE07083D
S3150800CF60687D012094900B08CA9E0120CC550120AB
S3150800CF70DCFE0708F8C8001060C90010AC2A0120BA
S3150800CF80F0FE0708587F002018FF07088F1E1700B5
S3150800CF90F8C000107CFF070830E00A0820BD001022
S3150800CFA0D0C4001029E00A0860FF070894A80020EA
S3150800CFB0A82E0020602800206C0F0808000000003A
S3150800CFC0682400200000C842B826002068270020F0
S3150800CFD0102700207CB500206026002090FF070857
S3150800CFE020250020400D0300901D0020F875002024
S3150800CFF080841E00ACFF0708089F00201A6283ED94
S3150800D0000CABC94AC9481C7383ED098A83F82C40BE
S3150800D010C74B14754FF0220A00210FF2FC29D9E9F3
S3150800D020008983F804A0C2E90044C2E902441C72DC
S3150800D0301C73C3E90401BF49196083ED069B1A6294
S3150800D040BD48BE4A0023212158F078FBBB4ABC489C
S3150800D0500023502158F072FB424620214B462846B1
S3150800D06058F06CFB0C27B74BAB6405F14C00F7EE98
S3150800D070000AB0EE4B0AC5E90E8985ED109B85F8C6
S3150800D0802C70AE6285F8304085F8344069F0C7F8F0
S3150800D09052F0AAF9DFEDAC0ADFF8708305F16800F3
S3150800D0A0B7EE000A69F0BBF885ED22AB85ED24AB37
S3150800D0B0C5E9274485F8984052F096F905F14803E2
S3150800D0C02B62A24BA24D1D60F7EE008A5146A14A7B
S3150800D0D0A148C3ED018A83ED028A83ED038A83EDB5
S3150800D0E0048AC3ED058A002358F028FB9B4B994A0E
S3150800D0F01D609B48C3ED018A83ED028A83ED038A8E
S3150800D10083ED048AC3ED058A2821002358F016FB0F
S3150800D110904A9448DFF8F8A20023362158F00EFB0F
S3150800D1209FED7FCB8B4A90480023382158F006FBA9
S3150800D1308E4B8F4818602721197183ED069B83ED66
S3150800D14004CBC3E90A441C721C731C6283F824408E
S3150800D15083ED0C8A83F83440864B35221A711860A1
S3150800D16083ED069B83ED04CBC3E90A441C721C734A
S3150800D1701C6283F8244083ED0C8A83F834407E4B86
S3150800D1800420187159717D481860282199717C4BC3
S3150800D19033215A713422197118609A7179486D4A87
S3150800D1A00023052158F0CAFA6A4A77480023322133
S3150800D1B058F0C4FA754B764A1A60764A5A60803A2D
S3150800D1C09A60754B2A221A71744A9A62744A1C72BA
S3150800D1D002F124014FF00009C3E9048983ED069B97
S3150800D1E01A6019621C735C626E4B2B2018716E48AC
S3150800D1F01C72C3E9048983ED069B98621A6019625A
S3150800D2001C735C62694B2C20187169481C72C3E94F
S3150800D210048983ED069B98621A6019621C735C6226
S3150800D220644B2D20187164481C721C731A60C3E97C
S3150800D230048983ED069B986219625C625F4B2E2017
S3150800D24018715F481A60C3E904891C7283ED069B4E
S3150800D250986219621C735C625A4B2F2018715A48DF
S3150800D2601A60C3E904891C7283ED069B98621962E9
S3150800D2701C735C62554B5649564819601A221A7136
S3150800D2809860554B55481960554999601B262146A3
S3150800D2901E7159F033FD32465248012159F02EFDD0
S3150800D2A051489FED520A49F640420023012158F0A1
S3150800D2B045FA4F4849F640420023022158F03EFA03
S3150800D2C04C4849F640420023182158F037FA4A4894
S3150800D2D049F640420023192158F030FA474849F6E2
S3150800D2E040420023082158F029FA3946444849F6AD
S3150800D2F04042002358F022FA424849F640420023A9
S3150800D300062158F01BFA49F6404200233E483721C9
S3150800D31058F014FA7EE000BF000E27070000000050
S3150800D32000350C00000000006854012000093D008B
S3150800D33050410020D0FF070878220020801A0600F6
S3150800D34050220020F0FF07080AD7233C94510120F9
S3150800D3501CF80708400D030010280020BC510120C6
S3150800D36038280020C0270020E8270020C8300020E1
S3150800D3700000080890300020B45101202000080859
S3150800D380AC510120587600203076002050510120FB
S3150800D3903C000808088F0010C875002005030A001D
S3150800D3A04C0008089875002006030A0068750020D6
S3150800D3B007030A003875002008030A0008750020CC
S3150800D3C009030A00D87400200A030A0074560120CB
S3150800D3D0840008084938050868560120E0400020FE
S3150800D3E0613805089840002008B500100000484339
S3150800D3F0E0B4001018B40010F0B30010B8B4001070
S3150800D40090B4001068B4001040B40010804F1200A9
S3150800D410989F0020CE48CF4958F050F9CE4858F08A
S3150800D4204DF9CE4858F04AF9CD4858F047F9CD4855
S3150800D43058F044F9CC4858F041F9CC4858F03EF930
S3150800D440CB4858F03BF9CB4B1960283119624FF09D
S3150800D45081414FF4FD6219634FF00308C64983F80A
S3150800D460048083ED049B83ED069B9A62DF621C723F
S3150800D4701C735C62C14B012601F12800052783ED68
S3150800D480049B83ED069BC3E909421E711960186265
S3150800D490DF621C721C73C3ED0C8AB94B02271F711D
S3150800D4A00F2783ED049B83ED069BC3E909421960A8
S3150800D4B01862DF621C721C73C3ED0C8AB14BC3E998
S3150800D4C00942B14A1A6028321A62B04A1A639FEDB5
S3150800D4D09E9BAF4ADF6210464FF00D090E2183F876
S3150800D4E0049083ED049B83ED069B1C721C7358F015
S3150800D4F059F93946504658F055F9A64B11211846A0
